{
  "_format": "hh-sol-artifact-1",
  "contractName": "Mytoken",
  "sourceName": "contracts/mytoken.sol",
  "abi": [
    {
      "inputs": [],
      "stateMutability": "nonpayable",
      "type": "constructor"
    },
    {
      "anonymous": false,
      "inputs": [
        {
          "indexed": true,
          "internalType": "address",
          "name": "owner",
          "type": "address"
        },
        {
          "indexed": true,
          "internalType": "address",
          "name": "spender",
          "type": "address"
        },
        {
          "indexed": false,
          "internalType": "uint256",
          "name": "value",
          "type": "uint256"
        }
      ],
      "name": "Approval",
      "type": "event"
    },
    {
      "anonymous": false,
      "inputs": [
        {
          "indexed": true,
          "internalType": "address",
          "name": "from",
          "type": "address"
        },
        {
          "indexed": false,
          "internalType": "uint256",
          "name": "value",
          "type": "uint256"
        }
      ],
      "name": "Burn",
      "type": "event"
    },
    {
      "anonymous": false,
      "inputs": [
        {
          "indexed": true,
          "internalType": "address",
          "name": "to",
          "type": "address"
        },
        {
          "indexed": false,
          "internalType": "uint256",
          "name": "value",
          "type": "uint256"
        }
      ],
      "name": "Mint",
      "type": "event"
    },
    {
      "anonymous": false,
      "inputs": [
        {
          "indexed": true,
          "internalType": "address",
          "name": "from",
          "type": "address"
        },
        {
          "indexed": true,
          "internalType": "address",
          "name": "to",
          "type": "address"
        },
        {
          "indexed": false,
          "internalType": "uint256",
          "name": "value",
          "type": "uint256"
        }
      ],
      "name": "Transfer",
      "type": "event"
    },
    {
      "inputs": [
        {
          "internalType": "address[]",
          "name": "_recipients",
          "type": "address[]"
        },
        {
          "internalType": "uint256",
          "name": "_values",
          "type": "uint256"
        }
      ],
      "name": "AirDrop",
      "outputs": [
        {
          "internalType": "bool",
          "name": "",
          "type": "bool"
        }
      ],
      "stateMutability": "nonpayable",
      "type": "function"
    },
    {
      "inputs": [
        {
          "internalType": "address",
          "name": "_owner",
          "type": "address"
        },
        {
          "internalType": "address",
          "name": "_spender",
          "type": "address"
        }
      ],
      "name": "allowance",
      "outputs": [
        {
          "internalType": "uint256",
          "name": "",
          "type": "uint256"
        }
      ],
      "stateMutability": "view",
      "type": "function"
    },
    {
      "inputs": [
        {
          "internalType": "address",
          "name": "_spender",
          "type": "address"
        },
        {
          "internalType": "uint256",
          "name": "_value",
          "type": "uint256"
        }
      ],
      "name": "approve",
      "outputs": [
        {
          "internalType": "bool",
          "name": "success",
          "type": "bool"
        }
      ],
      "stateMutability": "nonpayable",
      "type": "function"
    },
    {
      "inputs": [
        {
          "internalType": "address",
          "name": "_owner",
          "type": "address"
        }
      ],
      "name": "balanceOf",
      "outputs": [
        {
          "internalType": "uint256",
          "name": "balance",
          "type": "uint256"
        }
      ],
      "stateMutability": "view",
      "type": "function"
    },
    {
      "inputs": [
        {
          "internalType": "uint256",
          "name": "_value",
          "type": "uint256"
        }
      ],
      "name": "burn",
      "outputs": [
        {
          "internalType": "bool",
          "name": "success",
          "type": "bool"
        }
      ],
      "stateMutability": "nonpayable",
      "type": "function"
    },
    {
      "inputs": [
        {
          "internalType": "address",
          "name": "_from",
          "type": "address"
        },
        {
          "internalType": "uint256",
          "name": "_value",
          "type": "uint256"
        }
      ],
      "name": "burnFrom",
      "outputs": [
        {
          "internalType": "bool",
          "name": "success",
          "type": "bool"
        }
      ],
      "stateMutability": "nonpayable",
      "type": "function"
    },
    {
      "inputs": [
        {
          "internalType": "address",
          "name": "_to",
          "type": "address"
        },
        {
          "internalType": "uint256",
          "name": "_value",
          "type": "uint256"
        }
      ],
      "name": "mint",
      "outputs": [
        {
          "internalType": "bool",
          "name": "success",
          "type": "bool"
        }
      ],
      "stateMutability": "nonpayable",
      "type": "function"
    },
    {
      "inputs": [
        {
          "internalType": "address",
          "name": "target",
          "type": "address"
        },
        {
          "internalType": "uint256",
          "name": "mintedAmount",
          "type": "uint256"
        }
      ],
      "name": "mintToken",
      "outputs": [],
      "stateMutability": "nonpayable",
      "type": "function"
    },
    {
      "inputs": [],
      "name": "totalSupply",
      "outputs": [
        {
          "internalType": "uint256",
          "name": "supply",
          "type": "uint256"
        }
      ],
      "stateMutability": "view",
      "type": "function"
    },
    {
      "inputs": [
        {
          "internalType": "address",
          "name": "_to",
          "type": "address"
        },
        {
          "internalType": "uint256",
          "name": "_value",
          "type": "uint256"
        }
      ],
      "name": "transfer",
      "outputs": [
        {
          "internalType": "bool",
          "name": "success",
          "type": "bool"
        }
      ],
      "stateMutability": "nonpayable",
      "type": "function"
    },
    {
      "inputs": [
        {
          "internalType": "address",
          "name": "_from",
          "type": "address"
        },
        {
          "internalType": "address",
          "name": "_to",
          "type": "address"
        },
        {
          "internalType": "uint256",
          "name": "_value",
          "type": "uint256"
        }
      ],
      "name": "transferFrom",
      "outputs": [
        {
          "internalType": "bool",
          "name": "success",
          "type": "bool"
        }
      ],
      "stateMutability": "nonpayable",
      "type": "function"
    }
  ],
  "bytecode": "0x60806040526040518060400160405280600381526020017f4d5954000000000000000000000000000000000000000000000000000000000081525060009080519060200190620000519291906200016a565b506040518060400160405280600781526020017f4d79546f6b656e00000000000000000000000000000000000000000000000000815250600190805190602001906200009f9291906200016a565b5060126002556000600355348015620000b757600080fd5b5033600460006101000a81548173ffffffffffffffffffffffffffffffffffffffff021916908373ffffffffffffffffffffffffffffffffffffffff160217905550600254600a6200010a919062000275565b6000620001189190620003b2565b600381905550600354600560003373ffffffffffffffffffffffffffffffffffffffff1673ffffffffffffffffffffffffffffffffffffffff16815260200190815260200160002081905550620004be565b82805462000178906200041d565b90600052602060002090601f0160209004810192826200019c5760008555620001e8565b82601f10620001b757805160ff1916838001178555620001e8565b82800160010185558215620001e8579182015b82811115620001e7578251825591602001919060010190620001ca565b5b509050620001f79190620001fb565b5090565b5b8082111562000216576000816000905550600101620001fc565b5090565b6000808291508390505b60018511156200026c5780860481111562000244576200024362000453565b5b6001851615620002545780820291505b80810290506200026485620004b1565b945062000224565b94509492505050565b6000620002828262000413565b91506200028f8362000413565b9250620002be7fffffffffffffffffffffffffffffffffffffffffffffffffffffffffffffffff8484620002c6565b905092915050565b600082620002d85760019050620003ab565b81620002e85760009050620003ab565b81600181146200030157600281146200030c5762000342565b6001915050620003ab565b60ff84111562000321576200032062000453565b5b8360020a9150848211156200033b576200033a62000453565b5b50620003ab565b5060208310610133831016604e8410600b84101617156200037c5782820a90508381111562000376576200037562000453565b5b620003ab565b6200038b84848460016200021a565b92509050818404811115620003a557620003a462000453565b5b81810290505b9392505050565b6000620003bf8262000413565b9150620003cc8362000413565b9250817fffffffffffffffffffffffffffffffffffffffffffffffffffffffffffffffff048311821515161562000408576200040762000453565b5b828202905092915050565b6000819050919050565b600060028204905060018216806200043657607f821691505b602082108114156200044d576200044c62000482565b5b50919050565b7f4e487b7100000000000000000000000000000000000000000000000000000000600052601160045260246000fd5b7f4e487b7100000000000000000000000000000000000000000000000000000000600052602260045260246000fd5b60008160011c9050919050565b611b9b80620004ce6000396000f3fe608060405234801561001057600080fd5b50600436106100a95760003560e01c806370a082311161007157806370a082311461018c57806379c65068146101bc57806379cc6790146101d8578063a9059cbb14610208578063dd62ed3e14610238578063eeb9052f14610268576100a9565b8063095ea7b3146100ae57806318160ddd146100de57806323b872dd146100fc57806340c10f191461012c57806342966c681461015c575b600080fd5b6100c860048036038101906100c39190611573565b610298565b6040516100d5919061171e565b60405180910390f35b6100e661038a565b6040516100f391906117f7565b60405180910390f35b61011660048036038101906101119190611524565b610394565b604051610123919061171e565b60405180910390f35b61014660048036038101906101419190611573565b6106bf565b604051610153919061171e565b60405180910390f35b61017660048036038101906101719190611603565b610867565b604051610183919061171e565b60405180910390f35b6101a660048036038101906101a191906114bf565b610a71565b6040516101b391906117f7565b60405180910390f35b6101d660048036038101906101d19190611573565b610aba565b005b6101f260048036038101906101ed9190611573565b610c88565b6040516101ff919061171e565b60405180910390f35b610222600480360381019061021d9190611573565b610f8d565b60405161022f919061171e565b60405180910390f35b610252600480360381019061024d91906114e8565b611165565b60405161025f91906117f7565b60405180910390f35b610282600480360381019061027d91906115af565b6111ec565b60405161028f919061171e565b60405180910390f35b600081600660003373ffffffffffffffffffffffffffffffffffffffff1673ffffffffffffffffffffffffffffffffffffffff16815260200190815260200160002060008573ffffffffffffffffffffffffffffffffffffffff1673ffffffffffffffffffffffffffffffffffffffff168152602001908152602001600020819055508273ffffffffffffffffffffffffffffffffffffffff163373ffffffffffffffffffffffffffffffffffffffff167f8c5be1e5ebec7d5bd14f71427d1e84f3dd0314c0f7b2291e5b200ac8c7c3b9258460405161037891906117f7565b60405180910390a36001905092915050565b6000600354905090565b60008073ffffffffffffffffffffffffffffffffffffffff168373ffffffffffffffffffffffffffffffffffffffff1614156103cf57600080fd5b600660008573ffffffffffffffffffffffffffffffffffffffff1673ffffffffffffffffffffffffffffffffffffffff16815260200190815260200160002060003373ffffffffffffffffffffffffffffffffffffffff1673ffffffffffffffffffffffffffffffffffffffff1681526020019081526020016000205482111561048e576040517f08c379a0000000000000000000000000000000000000000000000000000000008152600401610485906117d7565b60405180910390fd5b600560008573ffffffffffffffffffffffffffffffffffffffff1673ffffffffffffffffffffffffffffffffffffffff16815260200190815260200160002054821115610510576040517f08c379a000000000000000000000000000000000000000000000000000000000815260040161050790611797565b60405180910390fd5b81600560008673ffffffffffffffffffffffffffffffffffffffff1673ffffffffffffffffffffffffffffffffffffffff168152602001908152602001600020600082825461055f91906118d5565b9250508190555081600560008573ffffffffffffffffffffffffffffffffffffffff1673ffffffffffffffffffffffffffffffffffffffff16815260200190815260200160002060008282546105b5919061187f565b9250508190555081600660008673ffffffffffffffffffffffffffffffffffffffff1673ffffffffffffffffffffffffffffffffffffffff16815260200190815260200160002060003373ffffffffffffffffffffffffffffffffffffffff1673ffffffffffffffffffffffffffffffffffffffff168152602001908152602001600020600082825461064891906118d5565b925050819055508273ffffffffffffffffffffffffffffffffffffffff168473ffffffffffffffffffffffffffffffffffffffff167fddf252ad1be2c89b69c2b068fc378daa952ba7f163c4a11628f55a4df523b3ef846040516106ac91906117f7565b60405180910390a3600190509392505050565b6000600460009054906101000a900473ffffffffffffffffffffffffffffffffffffffff1673ffffffffffffffffffffffffffffffffffffffff163373ffffffffffffffffffffffffffffffffffffffff1614610751576040517f08c379a0000000000000000000000000000000000000000000000000000000008152600401610748906117b7565b60405180910390fd5b60035482111561076057600080fd5b81600560008573ffffffffffffffffffffffffffffffffffffffff1673ffffffffffffffffffffffffffffffffffffffff16815260200190815260200160002060008282546107af919061187f565b9250508190555081600360008282546107c8919061187f565b925050819055508273ffffffffffffffffffffffffffffffffffffffff167f0f6798a560793a54c3bcfe86a93cde1e73087d944c0ea20544137d41213968858360405161081591906117f7565b60405180910390a261085d6040518060400160405280600481526020017f6d696e74000000000000000000000000000000000000000000000000000000008152508484611337565b6001905092915050565b6000600460009054906101000a900473ffffffffffffffffffffffffffffffffffffffff1673ffffffffffffffffffffffffffffffffffffffff163373ffffffffffffffffffffffffffffffffffffffff16146108f9576040517f08c379a00000000000000000000000000000000000000000000000000000000081526004016108f0906117b7565b60405180910390fd5b8160056000600460009054906101000a900473ffffffffffffffffffffffffffffffffffffffff1673ffffffffffffffffffffffffffffffffffffffff1673ffffffffffffffffffffffffffffffffffffffff16815260200190815260200160002054101561096757600080fd5b8160056000600460009054906101000a900473ffffffffffffffffffffffffffffffffffffffff1673ffffffffffffffffffffffffffffffffffffffff1673ffffffffffffffffffffffffffffffffffffffff16815260200190815260200160002060008282546109d891906118d5565b9250508190555081600360008282546109f191906118d5565b92505081905550600460009054906101000a900473ffffffffffffffffffffffffffffffffffffffff1673ffffffffffffffffffffffffffffffffffffffff167fcc16f5dbb4873280815c1ee09dbd06736cffcc184412cf7a71a0fdb75d397ca583604051610a6091906117f7565b60405180910390a260019050919050565b6000600560008373ffffffffffffffffffffffffffffffffffffffff1673ffffffffffffffffffffffffffffffffffffffff168152602001908152602001600020549050919050565b600460009054906101000a900473ffffffffffffffffffffffffffffffffffffffff1673ffffffffffffffffffffffffffffffffffffffff163373ffffffffffffffffffffffffffffffffffffffff1614610b4a576040517f08c379a0000000000000000000000000000000000000000000000000000000008152600401610b41906117b7565b60405180910390fd5b80600560008473ffffffffffffffffffffffffffffffffffffffff1673ffffffffffffffffffffffffffffffffffffffff1681526020019081526020016000206000828254610b99919061187f565b925050819055508060036000828254610bb2919061187f565b925050819055503073ffffffffffffffffffffffffffffffffffffffff16600073ffffffffffffffffffffffffffffffffffffffff167fddf252ad1be2c89b69c2b068fc378daa952ba7f163c4a11628f55a4df523b3ef83604051610c1791906117f7565b60405180910390a38173ffffffffffffffffffffffffffffffffffffffff163073ffffffffffffffffffffffffffffffffffffffff167fddf252ad1be2c89b69c2b068fc378daa952ba7f163c4a11628f55a4df523b3ef83604051610c7c91906117f7565b60405180910390a35050565b6000600460009054906101000a900473ffffffffffffffffffffffffffffffffffffffff1673ffffffffffffffffffffffffffffffffffffffff163373ffffffffffffffffffffffffffffffffffffffff1614610d1a576040517f08c379a0000000000000000000000000000000000000000000000000000000008152600401610d11906117b7565b60405180910390fd5b81600560008573ffffffffffffffffffffffffffffffffffffffff1673ffffffffffffffffffffffffffffffffffffffff168152602001908152602001600020541015610d6657600080fd5b600660008473ffffffffffffffffffffffffffffffffffffffff1673ffffffffffffffffffffffffffffffffffffffff1681526020019081526020016000206000600460009054906101000a900473ffffffffffffffffffffffffffffffffffffffff1673ffffffffffffffffffffffffffffffffffffffff1673ffffffffffffffffffffffffffffffffffffffff16815260200190815260200160002054821115610e1157600080fd5b81600560008573ffffffffffffffffffffffffffffffffffffffff1673ffffffffffffffffffffffffffffffffffffffff1681526020019081526020016000206000828254610e6091906118d5565b9250508190555081600660008573ffffffffffffffffffffffffffffffffffffffff1673ffffffffffffffffffffffffffffffffffffffff1681526020019081526020016000206000600460009054906101000a900473ffffffffffffffffffffffffffffffffffffffff1673ffffffffffffffffffffffffffffffffffffffff1673ffffffffffffffffffffffffffffffffffffffff1681526020019081526020016000206000828254610f1591906118d5565b925050819055508160036000828254610f2e91906118d5565b925050819055508273ffffffffffffffffffffffffffffffffffffffff167fcc16f5dbb4873280815c1ee09dbd06736cffcc184412cf7a71a0fdb75d397ca583604051610f7b91906117f7565b60405180910390a26001905092915050565b60008073ffffffffffffffffffffffffffffffffffffffff168373ffffffffffffffffffffffffffffffffffffffff161415610fc857600080fd5b600560003373ffffffffffffffffffffffffffffffffffffffff1673ffffffffffffffffffffffffffffffffffffffff1681526020019081526020016000205482111561104a576040517f08c379a000000000000000000000000000000000000000000000000000000000815260040161104190611797565b60405180910390fd5b81600560003373ffffffffffffffffffffffffffffffffffffffff1673ffffffffffffffffffffffffffffffffffffffff168152602001908152602001600020600082825461109991906118d5565b9250508190555081600560008573ffffffffffffffffffffffffffffffffffffffff1673ffffffffffffffffffffffffffffffffffffffff16815260200190815260200160002060008282546110ef919061187f565b925050819055508273ffffffffffffffffffffffffffffffffffffffff163373ffffffffffffffffffffffffffffffffffffffff167fddf252ad1be2c89b69c2b068fc378daa952ba7f163c4a11628f55a4df523b3ef8460405161115391906117f7565b60405180910390a36001905092915050565b6000600660008473ffffffffffffffffffffffffffffffffffffffff1673ffffffffffffffffffffffffffffffffffffffff16815260200190815260200160002060008373ffffffffffffffffffffffffffffffffffffffff1673ffffffffffffffffffffffffffffffffffffffff16815260200190815260200160002054905092915050565b6000600460009054906101000a900473ffffffffffffffffffffffffffffffffffffffff1673ffffffffffffffffffffffffffffffffffffffff163373ffffffffffffffffffffffffffffffffffffffff161461127e576040517f08c379a0000000000000000000000000000000000000000000000000000000008152600401611275906117b7565b60405180910390fd5b60008351116112c2576040517f08c379a00000000000000000000000000000000000000000000000000000000081526004016112b990611777565b60405180910390fd5b60005b835181101561132c5761131884828151811061130a577f4e487b7100000000000000000000000000000000000000000000000000000000600052603260045260246000fd5b602002602001015184610f8d565b508080611324906119b5565b9150506112c5565b506001905092915050565b6113d183838360405160240161134f93929190611739565b6040516020818303038152906040527f07c81217000000000000000000000000000000000000000000000000000000007bffffffffffffffffffffffffffffffffffffffffffffffffffffffff19166020820180517bffffffffffffffffffffffffffffffffffffffffffffffffffffffff83818316178352505050506113d6565b505050565b60008151905060006a636f6e736f6c652e6c6f679050602083016000808483855afa5050505050565b600061141261140d84611837565b611812565b9050808382526020820190508285602086028201111561143157600080fd5b60005b858110156114615781611447888261146b565b845260208401935060208301925050600181019050611434565b5050509392505050565b60008135905061147a81611b37565b92915050565b600082601f83011261149157600080fd5b81356114a18482602086016113ff565b91505092915050565b6000813590506114b981611b4e565b92915050565b6000602082840312156114d157600080fd5b60006114df8482850161146b565b91505092915050565b600080604083850312156114fb57600080fd5b60006115098582860161146b565b925050602061151a8582860161146b565b9150509250929050565b60008060006060848603121561153957600080fd5b60006115478682870161146b565b93505060206115588682870161146b565b9250506040611569868287016114aa565b9150509250925092565b6000806040838503121561158657600080fd5b60006115948582860161146b565b92505060206115a5858286016114aa565b9150509250929050565b600080604083850312156115c257600080fd5b600083013567ffffffffffffffff8111156115dc57600080fd5b6115e885828601611480565b92505060206115f9858286016114aa565b9150509250929050565b60006020828403121561161557600080fd5b6000611623848285016114aa565b91505092915050565b61163581611909565b82525050565b6116448161191b565b82525050565b600061165582611863565b61165f818561186e565b935061166f818560208601611951565b61167881611a5c565b840191505092915050565b600061169060288361186e565b915061169b82611a6d565b604082019050919050565b60006116b360128361186e565b91506116be82611abc565b602082019050919050565b60006116d660168361186e565b91506116e182611ae5565b602082019050919050565b60006116f960148361186e565b915061170482611b0e565b602082019050919050565b61171881611947565b82525050565b6000602082019050611733600083018461163b565b92915050565b60006060820190508181036000830152611753818661164a565b9050611762602083018561162c565b61176f604083018461170f565b949350505050565b6000602082019050818103600083015261179081611683565b9050919050565b600060208201905081810360008301526117b0816116a6565b9050919050565b600060208201905081810360008301526117d0816116c9565b9050919050565b600060208201905081810360008301526117f0816116ec565b9050919050565b600060208201905061180c600083018461170f565b92915050565b600061181c61182d565b90506118288282611984565b919050565b6000604051905090565b600067ffffffffffffffff82111561185257611851611a2d565b5b602082029050602081019050919050565b600081519050919050565b600082825260208201905092915050565b600061188a82611947565b915061189583611947565b9250827fffffffffffffffffffffffffffffffffffffffffffffffffffffffffffffffff038211156118ca576118c96119fe565b5b828201905092915050565b60006118e082611947565b91506118eb83611947565b9250828210156118fe576118fd6119fe565b5b828203905092915050565b600061191482611927565b9050919050565b60008115159050919050565b600073ffffffffffffffffffffffffffffffffffffffff82169050919050565b6000819050919050565b60005b8381101561196f578082015181840152602081019050611954565b8381111561197e576000848401525b50505050565b61198d82611a5c565b810181811067ffffffffffffffff821117156119ac576119ab611a2d565b5b80604052505050565b60006119c082611947565b91507fffffffffffffffffffffffffffffffffffffffffffffffffffffffffffffffff8214156119f3576119f26119fe565b5b600182019050919050565b7f4e487b7100000000000000000000000000000000000000000000000000000000600052601160045260246000fd5b7f4e487b7100000000000000000000000000000000000000000000000000000000600052604160045260246000fd5b6000601f19601f8301169050919050565b7f526563697069656e7473206d75737420626520616e206172726179206f66206160008201527f6464726573736573000000000000000000000000000000000000000000000000602082015250565b7f4e6f7420656e6f7567682062616c616e63650000000000000000000000000000600082015250565b7f4f6e6c79206f776e65722063616e20646f207468697300000000000000000000600082015250565b7f4e6f7420656e6f75676820616c6c6f77616e6365000000000000000000000000600082015250565b611b4081611909565b8114611b4b57600080fd5b50565b611b5781611947565b8114611b6257600080fd5b5056fea2646970667358221220f07b06bf5ede79cba0224914bfe2bbcaeb28fd62ba144ff11d7ad653cb5358ca64736f6c63430008040033",
  "linkReferences": {},
  "deployedLinkReferences": {}
}