{
  "_format": "hh-sol-artifact-1",
  "contractName": "Vault",
  "sourceName": "contracts/vault.sol",
  "abi": [
    {
      "inputs": [
        {
          "internalType": "address[]",
          "name": "_tokens",
          "type": "address[]"
        }
      ],
      "stateMutability": "nonpayable",
      "type": "constructor"
    },
    {
      "anonymous": false,
      "inputs": [
        {
          "indexed": true,
          "internalType": "address",
          "name": "token",
          "type": "address"
        },
        {
          "indexed": false,
          "internalType": "address",
          "name": "_from",
          "type": "address"
        },
        {
          "indexed": false,
          "internalType": "uint256",
          "name": "amount",
          "type": "uint256"
        }
      ],
      "name": "Deposit",
      "type": "event"
    },
    {
      "inputs": [
        {
          "internalType": "address",
          "name": "token",
          "type": "address"
        }
      ],
      "name": "addToken",
      "outputs": [],
      "stateMutability": "nonpayable",
      "type": "function"
    },
    {
      "inputs": [
        {
          "internalType": "address",
          "name": "token",
          "type": "address"
        },
        {
          "internalType": "uint256",
          "name": "amount",
          "type": "uint256"
        }
      ],
      "name": "deposit",
      "outputs": [],
      "stateMutability": "nonpayable",
      "type": "function"
    },
    {
      "inputs": [
        {
          "internalType": "address",
          "name": "token",
          "type": "address"
        },
        {
          "internalType": "address",
          "name": "user",
          "type": "address"
        }
      ],
      "name": "getBalanceOf",
      "outputs": [
        {
          "internalType": "uint256",
          "name": "",
          "type": "uint256"
        }
      ],
      "stateMutability": "view",
      "type": "function"
    },
    {
      "inputs": [
        {
          "internalType": "address",
          "name": "token",
          "type": "address"
        }
      ],
      "name": "getBalanceTotal",
      "outputs": [
        {
          "internalType": "uint256",
          "name": "",
          "type": "uint256"
        }
      ],
      "stateMutability": "view",
      "type": "function"
    },
    {
      "inputs": [
        {
          "internalType": "address",
          "name": "token",
          "type": "address"
        }
      ],
      "name": "isSupported",
      "outputs": [
        {
          "internalType": "bool",
          "name": "",
          "type": "bool"
        }
      ],
      "stateMutability": "view",
      "type": "function"
    },
    {
      "inputs": [
        {
          "internalType": "address",
          "name": "token",
          "type": "address"
        }
      ],
      "name": "removeToken",
      "outputs": [],
      "stateMutability": "nonpayable",
      "type": "function"
    },
    {
      "inputs": [
        {
          "internalType": "address",
          "name": "",
          "type": "address"
        }
      ],
      "name": "supportedTokenMap",
      "outputs": [
        {
          "internalType": "bool",
          "name": "",
          "type": "bool"
        }
      ],
      "stateMutability": "view",
      "type": "function"
    },
    {
      "inputs": [
        {
          "internalType": "address",
          "name": "",
          "type": "address"
        },
        {
          "internalType": "address",
          "name": "",
          "type": "address"
        }
      ],
      "name": "tokenBalances",
      "outputs": [
        {
          "internalType": "uint256",
          "name": "",
          "type": "uint256"
        }
      ],
      "stateMutability": "view",
      "type": "function"
    },
    {
      "inputs": [
        {
          "internalType": "address",
          "name": "token",
          "type": "address"
        },
        {
          "internalType": "uint256",
          "name": "amount",
          "type": "uint256"
        }
      ],
      "name": "withdraw",
      "outputs": [],
      "stateMutability": "nonpayable",
      "type": "function"
    }
  ],
  "bytecode": "0x60806040523480156200001157600080fd5b506040516200143a3803806200143a83398181016040528101906200003791906200020a565b60016000808073ffffffffffffffffffffffffffffffffffffffff1673ffffffffffffffffffffffffffffffffffffffff16815260200190815260200160002060006101000a81548160ff02191690831515021790555060005b815181101562000149576001600080848481518110620000da577f4e487b7100000000000000000000000000000000000000000000000000000000600052603260045260246000fd5b602002602001015173ffffffffffffffffffffffffffffffffffffffff1673ffffffffffffffffffffffffffffffffffffffff16815260200190815260200160002060006101000a81548160ff021916908315150217905550808062000140906200031b565b91505062000091565b5050620003f2565b600062000168620001628462000278565b6200024f565b905080838252602082019050828560208602820111156200018857600080fd5b60005b85811015620001bc5781620001a18882620001c6565b8452602084019350602083019250506001810190506200018b565b5050509392505050565b600081519050620001d781620003d8565b92915050565b600082601f830112620001ef57600080fd5b81516200020184826020860162000151565b91505092915050565b6000602082840312156200021d57600080fd5b600082015167ffffffffffffffff8111156200023857600080fd5b6200024684828501620001dd565b91505092915050565b60006200025b6200026e565b9050620002698282620002e5565b919050565b6000604051905090565b600067ffffffffffffffff82111562000296576200029562000398565b5b602082029050602081019050919050565b6000620002b482620002bb565b9050919050565b600073ffffffffffffffffffffffffffffffffffffffff82169050919050565b6000819050919050565b620002f082620003c7565b810181811067ffffffffffffffff8211171562000312576200031162000398565b5b80604052505050565b60006200032882620002db565b91507fffffffffffffffffffffffffffffffffffffffffffffffffffffffffffffffff8214156200035e576200035d62000369565b5b600182019050919050565b7f4e487b7100000000000000000000000000000000000000000000000000000000600052601160045260246000fd5b7f4e487b7100000000000000000000000000000000000000000000000000000000600052604160045260246000fd5b6000601f19601f8301169050919050565b620003e381620002a7565b8114620003ef57600080fd5b50565b61103880620004026000396000f3fe608060405234801561001057600080fd5b50600436106100935760003560e01c80635fa7b584116100665780635fa7b58414610144578063a3f254ee14610160578063b0669ccc14610190578063d48bfca7146101c0578063f3fef3a3146101dc57610093565b806347e7ef24146100985780634dbf6c5a146100b45780634f129c53146100e457806353290b4414610114575b600080fd5b6100b260048036038101906100ad9190610baf565b6101f8565b005b6100ce60048036038101906100c99190610b73565b61049c565b6040516100db9190610def565b60405180910390f35b6100fe60048036038101906100f99190610b4a565b6104c1565b60405161010b9190610d64565b60405180910390f35b61012e60048036038101906101299190610b73565b610516565b60405161013b9190610def565b60405180910390f35b61015e60048036038101906101599190610b4a565b610628565b005b61017a60048036038101906101759190610b4a565b610682565b6040516101879190610d64565b60405180910390f35b6101aa60048036038101906101a59190610b4a565b6106a2565b6040516101b79190610def565b60405180910390f35b6101da60048036038101906101d59190610b4a565b610804565b005b6101f660048036038101906101f19190610baf565b61085e565b005b6000808373ffffffffffffffffffffffffffffffffffffffff1673ffffffffffffffffffffffffffffffffffffffff16815260200190815260200160002060009054906101000a900460ff1661024d57600080fd5b6000811161025a57600080fd5b808273ffffffffffffffffffffffffffffffffffffffff166370a08231336040518263ffffffff1660e01b81526004016102949190610ce9565b60206040518083038186803b1580156102ac57600080fd5b505afa1580156102c0573d6000803e3d6000fd5b505050506040513d601f19601f820116820180604052508101906102e49190610c14565b1015610325576040517f08c379a000000000000000000000000000000000000000000000000000000000815260040161031c90610daf565b60405180910390fd5b8173ffffffffffffffffffffffffffffffffffffffff166323b872dd3330846040518463ffffffff1660e01b815260040161036293929190610d04565b602060405180830381600087803b15801561037c57600080fd5b505af1158015610390573d6000803e3d6000fd5b505050506040513d601f19601f820116820180604052508101906103b49190610beb565b5080600160008473ffffffffffffffffffffffffffffffffffffffff1673ffffffffffffffffffffffffffffffffffffffff16815260200190815260200160002060003373ffffffffffffffffffffffffffffffffffffffff1673ffffffffffffffffffffffffffffffffffffffff16815260200190815260200160002060008282546104419190610e26565b925050819055508173ffffffffffffffffffffffffffffffffffffffff167f5548c837ab068cf56a2c2479df0882a4922fd203edb7517321831d95078c5f623383604051610490929190610d3b565b60405180910390a25050565b6001602052816000526040600020602052806000526040600020600091509150505481565b60008060008373ffffffffffffffffffffffffffffffffffffffff1673ffffffffffffffffffffffffffffffffffffffff16815260200190815260200160002060009054906101000a900460ff169050919050565b60008060008473ffffffffffffffffffffffffffffffffffffffff1673ffffffffffffffffffffffffffffffffffffffff16815260200190815260200160002060009054906101000a900460ff166105a3576040517f08c379a000000000000000000000000000000000000000000000000000000000815260040161059a90610dcf565b60405180910390fd5b600160008473ffffffffffffffffffffffffffffffffffffffff1673ffffffffffffffffffffffffffffffffffffffff16815260200190815260200160002060008373ffffffffffffffffffffffffffffffffffffffff1673ffffffffffffffffffffffffffffffffffffffff16815260200190815260200160002054905092915050565b60008060008373ffffffffffffffffffffffffffffffffffffffff1673ffffffffffffffffffffffffffffffffffffffff16815260200190815260200160002060006101000a81548160ff02191690831515021790555050565b60006020528060005260406000206000915054906101000a900460ff1681565b60008060008373ffffffffffffffffffffffffffffffffffffffff1673ffffffffffffffffffffffffffffffffffffffff16815260200190815260200160002060009054906101000a900460ff1661072f576040517f08c379a000000000000000000000000000000000000000000000000000000000815260040161072690610dcf565b60405180910390fd5b60008273ffffffffffffffffffffffffffffffffffffffff166370a08231306040518263ffffffff1660e01b815260040161076a9190610ce9565b60206040518083038186803b15801561078257600080fd5b505afa158015610796573d6000803e3d6000fd5b505050506040513d601f19601f820116820180604052508101906107ba9190610c14565b90506107fb6040518060400160405280601081526020017f746f6b656e2062616c616e63652025730000000000000000000000000000000081525082610a31565b80915050919050565b60016000808373ffffffffffffffffffffffffffffffffffffffff1673ffffffffffffffffffffffffffffffffffffffff16815260200190815260200160002060006101000a81548160ff02191690831515021790555050565b6000808373ffffffffffffffffffffffffffffffffffffffff1673ffffffffffffffffffffffffffffffffffffffff16815260200190815260200160002060009054906101000a900460ff166108b357600080fd5b600081116108c057600080fd5b806108cb8333610516565b101561090c576040517f08c379a000000000000000000000000000000000000000000000000000000000815260040161090390610daf565b60405180910390fd5b80600160008473ffffffffffffffffffffffffffffffffffffffff1673ffffffffffffffffffffffffffffffffffffffff16815260200190815260200160002060003373ffffffffffffffffffffffffffffffffffffffff1673ffffffffffffffffffffffffffffffffffffffff16815260200190815260200160002060008282546109989190610e7c565b925050819055508173ffffffffffffffffffffffffffffffffffffffff1663a9059cbb33836040518363ffffffff1660e01b81526004016109da929190610d3b565b602060405180830381600087803b1580156109f457600080fd5b505af1158015610a08573d6000803e3d6000fd5b505050506040513d601f19601f82011682018060405250810190610a2c9190610beb565b505050565b610ac98282604051602401610a47929190610d7f565b6040516020818303038152906040527f9710a9d0000000000000000000000000000000000000000000000000000000007bffffffffffffffffffffffffffffffffffffffffffffffffffffffff19166020820180517bffffffffffffffffffffffffffffffffffffffffffffffffffffffff8381831617835250505050610acd565b5050565b60008151905060006a636f6e736f6c652e6c6f679050602083016000808483855afa5050505050565b600081359050610b0581610fbd565b92915050565b600081519050610b1a81610fd4565b92915050565b600081359050610b2f81610feb565b92915050565b600081519050610b4481610feb565b92915050565b600060208284031215610b5c57600080fd5b6000610b6a84828501610af6565b91505092915050565b60008060408385031215610b8657600080fd5b6000610b9485828601610af6565b9250506020610ba585828601610af6565b9150509250929050565b60008060408385031215610bc257600080fd5b6000610bd085828601610af6565b9250506020610be185828601610b20565b9150509250929050565b600060208284031215610bfd57600080fd5b6000610c0b84828501610b0b565b91505092915050565b600060208284031215610c2657600080fd5b6000610c3484828501610b35565b91505092915050565b610c4681610eb0565b82525050565b610c5581610ec2565b82525050565b6000610c6682610e0a565b610c708185610e15565b9350610c80818560208601610ef8565b610c8981610f5a565b840191505092915050565b6000610ca1601483610e15565b9150610cac82610f6b565b602082019050919050565b6000610cc4601383610e15565b9150610ccf82610f94565b602082019050919050565b610ce381610eee565b82525050565b6000602082019050610cfe6000830184610c3d565b92915050565b6000606082019050610d196000830186610c3d565b610d266020830185610c3d565b610d336040830184610cda565b949350505050565b6000604082019050610d506000830185610c3d565b610d5d6020830184610cda565b9392505050565b6000602082019050610d796000830184610c4c565b92915050565b60006040820190508181036000830152610d998185610c5b565b9050610da86020830184610cda565b9392505050565b60006020820190508181036000830152610dc881610c94565b9050919050565b60006020820190508181036000830152610de881610cb7565b9050919050565b6000602082019050610e046000830184610cda565b92915050565b600081519050919050565b600082825260208201905092915050565b6000610e3182610eee565b9150610e3c83610eee565b9250827fffffffffffffffffffffffffffffffffffffffffffffffffffffffffffffffff03821115610e7157610e70610f2b565b5b828201905092915050565b6000610e8782610eee565b9150610e9283610eee565b925082821015610ea557610ea4610f2b565b5b828203905092915050565b6000610ebb82610ece565b9050919050565b60008115159050919050565b600073ffffffffffffffffffffffffffffffffffffffff82169050919050565b6000819050919050565b60005b83811015610f16578082015181840152602081019050610efb565b83811115610f25576000848401525b50505050565b7f4e487b7100000000000000000000000000000000000000000000000000000000600052601160045260246000fd5b6000601f19601f8301169050919050565b7f496e73756666696369656e742062616c616e6365000000000000000000000000600082015250565b7f546f6b656e206e6f7420737570706f7274656400000000000000000000000000600082015250565b610fc681610eb0565b8114610fd157600080fd5b50565b610fdd81610ec2565b8114610fe857600080fd5b50565b610ff481610eee565b8114610fff57600080fd5b5056fea2646970667358221220c12c249ff611b2352ac00c4329b670a512e647a053329b56912183cb3bd92da664736f6c63430008040033",
  "linkReferences": {},
  "deployedLinkReferences": {}
}